{
  "contractName": "ya7yoo7TokenSale",
  "abi": [
    {
      "constant": true,
      "inputs": [],
      "name": "tokenContract",
      "outputs": [
        {
          "name": "",
          "type": "address"
        }
      ],
      "payable": false,
      "stateMutability": "view",
      "type": "function",
      "signature": "0x55a373d6"
    },
    {
      "constant": true,
      "inputs": [],
      "name": "tokenPrice",
      "outputs": [
        {
          "name": "",
          "type": "uint256"
        }
      ],
      "payable": false,
      "stateMutability": "view",
      "type": "function",
      "signature": "0x7ff9b596"
    },
    {
      "inputs": [
        {
          "name": "_tokenContract",
          "type": "address"
        },
        {
          "name": "_tokenPrice",
          "type": "uint256"
        }
      ],
      "payable": false,
      "stateMutability": "nonpayable",
      "type": "constructor",
      "signature": "constructor"
    }
  ],
  "bytecode": "0x608060405234801561001057600080fd5b506040516040806101738339810180604052604081101561003057600080fd5b50805160209091015160008054600160a060020a0319908116331790915560018054600160a060020a03909416939091169290921790915560025560fa806100796000396000f3fe60806040526004361060485763ffffffff7c010000000000000000000000000000000000000000000000000000000060003504166355a373d68114604d5780637ff9b596146088575b600080fd5b348015605857600080fd5b50605f60ac565b6040805173ffffffffffffffffffffffffffffffffffffffff9092168252519081900360200190f35b348015609357600080fd5b50609a60c8565b60408051918252519081900360200190f35b60015473ffffffffffffffffffffffffffffffffffffffff1681565b6002548156fea165627a7a72305820603ba3e9dd55ee46ad6f22750777fd627e3e952bf26a411422621b4c7dacd1920029",
  "source": "pragma solidity ^0.5.0;\nimport './ya7yoo7.sol';\ncontract ya7yoo7TokenSale{\naddress admin;\nya7yoo7 public tokenContract;\nuint256 public tokenPrice;\nconstructor (ya7yoo7 _tokenContract,uint256 _tokenPrice) public {\n    admin = msg.sender;\n    tokenContract = _tokenContract;\n    tokenPrice = _tokenPrice;\n}\n\n\n}\n",
  "sourcePath": "/home/yehia/Documents/Projects/solidity/ya7yoo7/contracts/ya7yoo7TokenSale.sol",
  "compiler": {
    "name": "solc",
    "version": "0.5.0+commit.1d4f565a.Emscripten.clang"
  },
  "schemaVersion": "3.0.8",
  "updatedAt": "2019-07-09T07:23:43.955Z",
  "devdoc": {
    "methods": {}
  },
  "userdoc": {
    "methods": {}
  }
}