{
  "contractName": "ya7yoo7TokenSale",
  "abi": [
    {
      "constant": true,
      "inputs": [],
      "name": "tokenSold",
      "outputs": [
        {
          "name": "",
          "type": "uint256"
        }
      ],
      "payable": false,
      "stateMutability": "view",
      "type": "function",
      "signature": "0x55a373d6"
    },
    {
      "constant": true,
      "inputs": [],
      "name": "tokenContract",
      "outputs": [
        {
          "name": "",
          "type": "address"
        }
      ],
      "payable": false,
      "stateMutability": "view",
      "type": "function",
      "signature": "0x7ff9b596"
    },
    {
      "inputs": [
        {
          "name": "_tokenContract",
          "type": "address"
        },
        {
          "name": "_tokenPrice",
          "type": "uint256"
        }
      ],
      "payable": false,
      "stateMutability": "view",
      "type": "function",
      "signature": "constructor",
      "constant": true,
      "name": "tokenPrice",
      "outputs": [
        {
          "name": "",
          "type": "uint256"
        }
      ]
    },
    {
      "inputs": [
        {
          "name": "_tokenContract",
          "type": "address"
        },
        {
          "name": "_tokenPrice",
          "type": "uint256"
        }
      ],
      "payable": false,
      "stateMutability": "nonpayable",
      "type": "constructor"
    },
    {
      "constant": false,
      "inputs": [
        {
          "name": "_buyer",
          "type": "address",
          "indexed": false
        },
        {
          "indexed": false,
          "name": "_amount",
          "type": "uint256"
        }
      ],
      "name": "Sell",
      "outputs": [],
      "payable": true,
      "stateMutability": "payable",
      "type": "event",
      "anonymous": false
    },
    {
      "constant": false,
      "inputs": [
        {
          "name": "_numberOfTokens",
          "type": "uint256"
        }
      ],
      "name": "buyTokens",
      "outputs": [],
      "payable": true,
      "stateMutability": "payable",
      "type": "function"
    },
    {
      "constant": false,
      "inputs": [],
      "name": "endSale",
      "outputs": [],
      "payable": false,
      "stateMutability": "nonpayable",
      "type": "function"
    }
  ],
  "bytecode": "0x608060405234801561001057600080fd5b506040516040806105898339810180604052604081101561003057600080fd5b50805160209091015160008054600160a060020a0319908116331790915560018054600160a060020a03909416939091169290921790915560025561050f8061007a6000396000f3fe60806040526004361061006c5763ffffffff7c01000000000000000000000000000000000000000000000000000000006000350416633610724e8114610071578063380d831b14610090578063519ee19e146100a557806355a373d6146100cc5780637ff9b596146100fd575b600080fd5b61008e6004803603602081101561008757600080fd5b5035610112565b005b34801561009c57600080fd5b5061008e6102ad565b3480156100b157600080fd5b506100ba61040c565b60408051918252519081900360200190f35b3480156100d857600080fd5b506100e1610412565b60408051600160a060020a039092168252519081900360200190f35b34801561010957600080fd5b506100ba610421565b61011e81600254610427565b341461012957600080fd5b600154604080517f70a0823100000000000000000000000000000000000000000000000000000000815230600482015290518392600160a060020a0316916370a08231916024808301926020929190829003018186803b15801561018c57600080fd5b505afa1580156101a0573d6000803e3d6000fd5b505050506040513d60208110156101b657600080fd5b505110156101c357600080fd5b600154604080517fa9059cbb000000000000000000000000000000000000000000000000000000008152336004820152602481018490529051600160a060020a039092169163a9059cbb916044808201926020929091908290030181600087803b15801561023057600080fd5b505af1158015610244573d6000803e3d6000fd5b505050506040513d602081101561025a57600080fd5b5051151561026757600080fd5b6003805482019055604080513381526020810183905281517f5e5e995ce3133561afceaa51a9a154d5db228cd7525d34df5185582c18d3df09929181900390910190a150565b600054600160a060020a031633146102c457600080fd5b600154600054604080517f70a082310000000000000000000000000000000000000000000000000000000081523060048201529051600160a060020a039384169363a9059cbb93169184916370a0823191602480820192602092909190829003018186803b15801561033557600080fd5b505afa158015610349573d6000803e3d6000fd5b505050506040513d602081101561035f57600080fd5b5051604080517c010000000000000000000000000000000000000000000000000000000063ffffffff8616028152600160a060020a03909316600484015260248301919091525160448083019260209291908290030181600087803b1580156103c757600080fd5b505af11580156103db573d6000803e3d6000fd5b505050506040513d60208110156103f157600080fd5b505115156103fe57600080fd5b600054600160a060020a0316ff5b60035481565b600154600160a060020a031681565b60025481565b6000821515610438575060006104dd565b82820282848281151561044757fe5b04146104da57604080517f08c379a000000000000000000000000000000000000000000000000000000000815260206004820152602160248201527f536166654d6174683a206d756c7469706c69636174696f6e206f766572666c6f60448201527f7700000000000000000000000000000000000000000000000000000000000000606482015290519081900360840190fd5b90505b9291505056fea165627a7a723058200c34ace44d93fc7c91c844f3c31612c5f9dfc76768a3bc78531512f01cd66c050029",
  "source": "pragma solidity ^0.5.0;\nimport './ya7yoo7.sol';\nimport './SafeMath.sol';\ncontract ya7yoo7TokenSale{\naddress payable admin;\nya7yoo7 public tokenContract;\nuint256 public tokenPrice;\nuint256 public tokenSold;\n\nevent Sell(address _buyer,uint256 _amount);\n\nconstructor (ya7yoo7 _tokenContract,uint256 _tokenPrice) public {\n    admin = msg.sender;\n    tokenContract = _tokenContract;\n    tokenPrice = _tokenPrice;\n}\n\n  function mul(uint256 a, uint256 b) internal pure returns (uint256) {\n        // Gas optimization: this is cheaper than requiring 'a' not being zero, but the\n        // benefit is lost if 'b' is also tested.\n        // See: https://github.com/OpenZeppelin/openzeppelin-solidity/pull/522\n        if (a == 0) {\n            return 0;\n        }\n\n        uint256 c = a * b;\n        require(c / a == b, \"SafeMath: multiplication overflow\");\n\n        return c;\n    }\n\nfunction buyTokens(uint256 _numberOfTokens)  public payable  {\n    require(msg.value == mul(_numberOfTokens,tokenPrice));\n    require(tokenContract.balanceOf(address(this)) >= _numberOfTokens);\n    require(tokenContract.transfer(msg.sender,_numberOfTokens));\n    tokenSold += _numberOfTokens;\n    emit Sell(msg.sender,_numberOfTokens);\n}\nfunction endSale() public {\n require(msg.sender == admin) ;\n require(tokenContract.transfer(admin,tokenContract.balanceOf(address(this))));\n selfdestruct(admin); \n}\n\n}\n",
  "sourcePath": "/home/yehia/Documents/Projects/solidity/ya7yoo7/contracts/ya7yoo7TokenSale.sol",
  "compiler": {
    "name": "solc",
    "version": "0.5.0+commit.1d4f565a.Emscripten.clang"
  },
  "schemaVersion": "3.0.8",
  "updatedAt": "2019-07-09T08:18:02.323Z",
  "devdoc": {
    "methods": {}
  },
  "userdoc": {
    "methods": {}
  }
}