{
  "contractName": "ya7yoo7",
  "abi": [
    {
      "constant": true,
      "inputs": [],
      "name": "name",
      "outputs": [
        {
          "name": "",
          "type": "string"
        }
      ],
      "payable": false,
      "stateMutability": "view",
      "type": "function"
    },
    {
      "constant": true,
      "inputs": [],
      "name": "totalSupply",
      "outputs": [
        {
          "name": "",
          "type": "uint256"
        }
      ],
      "payable": false,
      "stateMutability": "view",
      "type": "function"
    },
    {
      "constant": true,
      "inputs": [],
      "name": "standard",
      "outputs": [
        {
          "name": "",
          "type": "string"
        }
      ],
      "payable": false,
      "stateMutability": "view",
      "type": "function"
    },
    {
      "constant": true,
      "inputs": [
        {
          "name": "",
          "type": "address"
        }
      ],
      "name": "balanceOf",
      "outputs": [
        {
          "name": "",
          "type": "uint256"
        }
      ],
      "payable": false,
      "stateMutability": "view",
      "type": "function"
    },
    {
      "constant": true,
      "inputs": [],
      "name": "symbole",
      "outputs": [
        {
          "name": "",
          "type": "string"
        }
      ],
      "payable": false,
      "stateMutability": "view",
      "type": "function"
    },
    {
      "inputs": [
        {
          "name": "_totalSupply",
          "type": "uint256"
        }
      ],
      "payable": false,
      "stateMutability": "nonpayable",
      "type": "constructor"
    },
    {
      "anonymous": false,
      "inputs": [
        {
          "indexed": true,
          "name": "_from",
          "type": "address"
        },
        {
          "indexed": true,
          "name": "_to",
          "type": "address"
        },
        {
          "indexed": false,
          "name": "_value",
          "type": "uint256"
        }
      ],
      "name": "Transfer",
      "type": "event"
    },
    {
      "anonymous": false,
      "inputs": [
        {
          "indexed": true,
          "name": "_owner",
          "type": "address"
        },
        {
          "indexed": true,
          "name": "_spender",
          "type": "address"
        },
        {
          "indexed": false,
          "name": "_value",
          "type": "uint256"
        }
      ],
      "name": "Approval",
      "type": "event"
    },
    {
      "constant": false,
      "inputs": [
        {
          "name": "_to",
          "type": "address"
        },
        {
          "name": "_value",
          "type": "uint256"
        }
      ],
      "name": "transfer",
      "outputs": [
        {
          "name": "success",
          "type": "bool"
        }
      ],
      "payable": false,
      "stateMutability": "nonpayable",
      "type": "function"
    },
    {
      "constant": false,
      "inputs": [
        {
          "name": "_from",
          "type": "address"
        },
        {
          "name": "_to",
          "type": "address"
        },
        {
          "name": "_value",
          "type": "uint256"
        }
      ],
      "name": "transferFrom",
      "outputs": [
        {
          "name": "success",
          "type": "bool"
        }
      ],
      "payable": false,
      "stateMutability": "nonpayable",
      "type": "function"
    },
    {
      "constant": false,
      "inputs": [
        {
          "name": "spender",
          "type": "address"
        },
        {
          "name": "_value",
          "type": "uint256"
        }
      ],
      "name": "approve",
      "outputs": [
        {
          "name": "",
          "type": "bool"
        }
      ],
      "payable": false,
      "stateMutability": "nonpayable",
      "type": "function"
    }
  ],
  "bytecode": "0x60c0604052600760808190527f796137796f6f370000000000000000000000000000000000000000000000000060a090815261003e916002919061010d565b506040805180820190915260038082527f59544100000000000000000000000000000000000000000000000000000000006020909201918252610081918161010d565b5060408051808201909152600c8082527f796137796f6f372076312e30000000000000000000000000000000000000000060209092019182526100c69160049161010d565b503480156100d357600080fd5b506040516020806107a3833981018060405260208110156100f357600080fd5b5051336000908152600160205260408120829055556101a8565b828054600181600116156101000203166002900490600052602060002090601f016020900481019282601f1061014e57805160ff191683800117855561017b565b8280016001018555821561017b579182015b8281111561017b578251825591602001919060010190610160565b5061018792915061018b565b5090565b6101a591905b808211156101875760008155600101610191565b90565b6105ec806101b76000396000f3fe60806040526004361061008d5763ffffffff7c010000000000000000000000000000000000000000000000000000000060003504166306fdde038114610092578063095ea7b31461011c57806318160ddd1461016957806323b872dd146101905780635a3b7e42146101d357806370a08231146101e8578063a9059cbb1461021b578063ed6968e714610254575b600080fd5b34801561009e57600080fd5b506100a7610269565b6040805160208082528351818301528351919283929083019185019080838360005b838110156100e15781810151838201526020016100c9565b50505050905090810190601f16801561010e5780820380516001836020036101000a031916815260200191505b509250505060405180910390f35b34801561012857600080fd5b506101556004803603604081101561013f57600080fd5b50600160a060020a0381351690602001356102f4565b604080519115158252519081900360200190f35b34801561017557600080fd5b5061017e610373565b60408051918252519081900360200190f35b34801561019c57600080fd5b50610155600480360360608110156101b357600080fd5b50600160a060020a03813581169160208101359091169060400135610379565b3480156101df57600080fd5b506100a761046d565b3480156101f457600080fd5b5061017e6004803603602081101561020b57600080fd5b5035600160a060020a03166104c8565b34801561022757600080fd5b506101556004803603604081101561023e57600080fd5b50600160a060020a0381351690602001356104da565b34801561026057600080fd5b506100a7610565565b6002805460408051602060018416156101000260001901909316849004601f810184900484028201840190925281815292918301828280156102ec5780601f106102c1576101008083540402835291602001916102ec565b820191906000526020600020905b8154815290600101906020018083116102cf57829003601f168201915b505050505081565b6000600160a060020a038316151561030b57600080fd5b336000818152600560209081526040808320600160a060020a03881680855290835292819020869055805186815290519293927f8c5be1e5ebec7d5bd14f71427d1e84f3dd0314c0f7b2291e5b200ac8c7c3b925929181900390910190a35060015b92915050565b60005481565b600160a060020a03831660009081526001602052604081205482111561039e57600080fd5b336000908152600560209081526040808320600160a060020a03881684529091529020548211156103ce57600080fd5b600160a060020a03831615156103e357600080fd5b600160a060020a0384811660008181526001602090815260408083208054889003905593871680835284832080548801905583835260058252848320338452825291849020805487900390558351868152935191937fddf252ad1be2c89b69c2b068fc378daa952ba7f163c4a11628f55a4df523b3ef929081900390910190a35060019392505050565b6004805460408051602060026001851615610100026000190190941693909304601f810184900484028201840190925281815292918301828280156102ec5780601f106102c1576101008083540402835291602001916102ec565b60016020526000908152604090205481565b33600090815260016020526040812054821161055d5733600081815260016020908152604080832080548790039055600160a060020a03871680845292819020805487019055805186815290519293927fddf252ad1be2c89b69c2b068fc378daa952ba7f163c4a11628f55a4df523b3ef929181900390910190a350600161036d565b50600061036d565b6003805460408051602060026001851615610100026000190190941693909304601f810184900484028201840190925281815292918301828280156102ec5780601f106102c1576101008083540402835291602001916102ec56fea165627a7a7230582058c007f32a172dd68c887cd919881224a0daeec40bd7239ea4f0bdb483f9f0060029",
  "source": "pragma solidity ^0.5.0;\n\ncontract ya7yoo7{\n    uint256 public totalSupply;\n    mapping(address => uint256) public balanceOf;\n    string public name = \"ya7yoo7\";\n    string public symbole = \"YTA\";\n    string public standard = \"ya7yoo7 v1.0\";\n    event Transfer(address indexed _from, address indexed _to, uint256 _value);\n    event Approval(address indexed _owner, address indexed _spender, uint256 _value);\n    mapping (address => mapping (address => uint256)) private _allowed;\n    constructor (uint256 _totalSupply) public {\n        balanceOf[msg.sender] = _totalSupply;\n        totalSupply = _totalSupply;\n    }\n    \n   \n\n    function transfer(address _to, uint256 _value) public returns (bool success){\n        if (_value <= balanceOf[msg.sender]) {\n            balanceOf[msg.sender] -= _value;\n            balanceOf[_to] += _value;\n            emit Transfer(msg.sender,_to,_value);\n            return true;\n\n        } else {\n            return false;\n        }\n    }\n    \n    function transferFrom(address _from, address _to, uint256 _value) public returns (bool success){\n            require(_value <= balanceOf[_from]);\n            require(_value <= _allowed[msg.sender][_from]);\n            require(_to != address(0));\n\n            balanceOf[_from] = balanceOf[_from]-_value;\n            balanceOf[_to] = balanceOf[_to]+_value;\n            _allowed[_from][msg.sender] = _allowed[_from][msg.sender] -  _value;\n            emit Transfer(_from, _to, _value);\n            return true;\n        }\n    function approve(address spender, uint256 _value) public returns (bool) {\n        require(spender != address(0));\n\n        _allowed[msg.sender][spender] = _value;\n        emit Approval(msg.sender, spender, _value);\n        return true;\n  }\n\n\n}\n",
  "sourcePath": "/home/yehia/Documents/Projects/solidity/ya7yoo7/contracts/ya7yoo7.sol",
  "compiler": {
    "name": "solc",
    "version": "0.5.0+commit.1d4f565a.Emscripten.clang"
  },
  "schemaVersion": "3.0.8",
  "updatedAt": "2019-07-09T15:30:11.447Z",
  "devdoc": {
    "methods": {}
  },
  "userdoc": {
    "methods": {}
  }
}